{
  "contractName": "DebondERC3475",
  "abi": [
    {
      "inputs": [
        {
          "internalType": "address",
          "name": "_executableAddress",
          "type": "address"
        }
      ],
      "stateMutability": "nonpayable",
      "type": "constructor"
    },
    {
      "anonymous": false,
      "inputs": [
        {
          "indexed": true,
          "internalType": "address",
          "name": "_owner",
          "type": "address"
        },
        {
          "indexed": true,
          "internalType": "address",
          "name": "_operator",
          "type": "address"
        },
        {
          "indexed": false,
          "internalType": "bool",
          "name": "_approved",
          "type": "bool"
        }
      ],
      "name": "ApprovalFor",
      "type": "event"
    },
    {
      "anonymous": false,
      "inputs": [
        {
          "indexed": true,
          "internalType": "address",
          "name": "_operator",
          "type": "address"
        },
        {
          "indexed": true,
          "internalType": "address",
          "name": "_from",
          "type": "address"
        },
        {
          "components": [
            {
              "internalType": "uint256",
              "name": "classId",
              "type": "uint256"
            },
            {
              "internalType": "uint256",
              "name": "nonceId",
              "type": "uint256"
            },
            {
              "internalType": "uint256",
              "name": "amount",
              "type": "uint256"
            }
          ],
          "indexed": false,
          "internalType": "struct IERC3475.Transaction[]",
          "name": "_transaction",
          "type": "tuple[]"
        }
      ],
      "name": "Burn",
      "type": "event"
    },
    {
      "anonymous": false,
      "inputs": [
        {
          "indexed": true,
          "internalType": "address",
          "name": "_operator",
          "type": "address"
        },
        {
          "indexed": true,
          "internalType": "address",
          "name": "_to",
          "type": "address"
        },
        {
          "components": [
            {
              "internalType": "uint256",
              "name": "classId",
              "type": "uint256"
            },
            {
              "internalType": "uint256",
              "name": "nonceId",
              "type": "uint256"
            },
            {
              "internalType": "uint256",
              "name": "amount",
              "type": "uint256"
            }
          ],
          "indexed": false,
          "internalType": "struct IERC3475.Transaction[]",
          "name": "_transaction",
          "type": "tuple[]"
        }
      ],
      "name": "Issue",
      "type": "event"
    },
    {
      "anonymous": false,
      "inputs": [
        {
          "indexed": true,
          "internalType": "address",
          "name": "_operator",
          "type": "address"
        },
        {
          "indexed": true,
          "internalType": "address",
          "name": "_from",
          "type": "address"
        },
        {
          "components": [
            {
              "internalType": "uint256",
              "name": "classId",
              "type": "uint256"
            },
            {
              "internalType": "uint256",
              "name": "nonceId",
              "type": "uint256"
            },
            {
              "internalType": "uint256",
              "name": "amount",
              "type": "uint256"
            }
          ],
          "indexed": false,
          "internalType": "struct IERC3475.Transaction[]",
          "name": "_transaction",
          "type": "tuple[]"
        }
      ],
      "name": "Redeem",
      "type": "event"
    },
    {
      "anonymous": false,
      "inputs": [
        {
          "indexed": true,
          "internalType": "address",
          "name": "_operator",
          "type": "address"
        },
        {
          "indexed": true,
          "internalType": "address",
          "name": "_from",
          "type": "address"
        },
        {
          "indexed": true,
          "internalType": "address",
          "name": "_to",
          "type": "address"
        },
        {
          "components": [
            {
              "internalType": "uint256",
              "name": "classId",
              "type": "uint256"
            },
            {
              "internalType": "uint256",
              "name": "nonceId",
              "type": "uint256"
            },
            {
              "internalType": "uint256",
              "name": "amount",
              "type": "uint256"
            }
          ],
          "indexed": false,
          "internalType": "struct IERC3475.Transaction[]",
          "name": "_transaction",
          "type": "tuple[]"
        }
      ],
      "name": "Transfer",
      "type": "event"
    },
    {
      "inputs": [],
      "name": "contractIsActive",
      "outputs": [
        {
          "internalType": "bool",
          "name": "",
          "type": "bool"
        }
      ],
      "stateMutability": "view",
      "type": "function"
    },
    {
      "inputs": [],
      "name": "getExecutableAddress",
      "outputs": [
        {
          "internalType": "address",
          "name": "",
          "type": "address"
        }
      ],
      "stateMutability": "view",
      "type": "function"
    },
    {
      "inputs": [
        {
          "internalType": "bool",
          "name": "_isActive",
          "type": "bool"
        }
      ],
      "name": "setIsActive",
      "outputs": [],
      "stateMutability": "nonpayable",
      "type": "function"
    },
    {
      "inputs": [
        {
          "internalType": "address",
          "name": "_newExecutableAddress",
          "type": "address"
        }
      ],
      "name": "updateExecutableAddress",
      "outputs": [],
      "stateMutability": "nonpayable",
      "type": "function"
    },
    {
      "inputs": [
        {
          "internalType": "address",
          "name": "_bondManagerAddress",
          "type": "address"
        }
      ],
      "name": "updateBondManagerAddress",
      "outputs": [],
      "stateMutability": "nonpayable",
      "type": "function"
    },
    {
      "inputs": [
        {
          "internalType": "address",
          "name": "_bankAddress",
          "type": "address"
        }
      ],
      "name": "updateBankAddress",
      "outputs": [],
      "stateMutability": "nonpayable",
      "type": "function"
    },
    {
      "inputs": [
        {
          "internalType": "uint256",
          "name": "metadataId",
          "type": "uint256"
        },
        {
          "components": [
            {
              "internalType": "string",
              "name": "title",
              "type": "string"
            },
            {
              "internalType": "string",
              "name": "types",
              "type": "string"
            },
            {
              "internalType": "string",
              "name": "description",
              "type": "string"
            }
          ],
          "internalType": "struct IERC3475.Metadata",
          "name": "metadata",
          "type": "tuple"
        }
      ],
      "name": "createClassMetadata",
      "outputs": [],
      "stateMutability": "nonpayable",
      "type": "function"
    },
    {
      "inputs": [
        {
          "internalType": "uint256[]",
          "name": "metadataIds",
          "type": "uint256[]"
        },
        {
          "components": [
            {
              "internalType": "string",
              "name": "title",
              "type": "string"
            },
            {
              "internalType": "string",
              "name": "types",
              "type": "string"
            },
            {
              "internalType": "string",
              "name": "description",
              "type": "string"
            }
          ],
          "internalType": "struct IERC3475.Metadata[]",
          "name": "metadatas",
          "type": "tuple[]"
        }
      ],
      "name": "createClassMetadataBatch",
      "outputs": [],
      "stateMutability": "nonpayable",
      "type": "function"
    },
    {
      "inputs": [
        {
          "internalType": "uint256",
          "name": "classId",
          "type": "uint256"
        },
        {
          "internalType": "uint256",
          "name": "metadataId",
          "type": "uint256"
        },
        {
          "components": [
            {
              "internalType": "string",
              "name": "title",
              "type": "string"
            },
            {
              "internalType": "string",
              "name": "types",
              "type": "string"
            },
            {
              "internalType": "string",
              "name": "description",
              "type": "string"
            }
          ],
          "internalType": "struct IERC3475.Metadata",
          "name": "metadata",
          "type": "tuple"
        }
      ],
      "name": "createNonceMetadata",
      "outputs": [],
      "stateMutability": "nonpayable",
      "type": "function"
    },
    {
      "inputs": [
        {
          "internalType": "uint256",
          "name": "classId",
          "type": "uint256"
        },
        {
          "internalType": "uint256[]",
          "name": "metadataIds",
          "type": "uint256[]"
        },
        {
          "components": [
            {
              "internalType": "string",
              "name": "title",
              "type": "string"
            },
            {
              "internalType": "string",
              "name": "types",
              "type": "string"
            },
            {
              "internalType": "string",
              "name": "description",
              "type": "string"
            }
          ],
          "internalType": "struct IERC3475.Metadata[]",
          "name": "metadatas",
          "type": "tuple[]"
        }
      ],
      "name": "createNonceMetadataBatch",
      "outputs": [],
      "stateMutability": "nonpayable",
      "type": "function"
    },
    {
      "inputs": [
        {
          "internalType": "address",
          "name": "to",
          "type": "address"
        },
        {
          "components": [
            {
              "internalType": "uint256",
              "name": "classId",
              "type": "uint256"
            },
            {
              "internalType": "uint256",
              "name": "nonceId",
              "type": "uint256"
            },
            {
              "internalType": "uint256",
              "name": "amount",
              "type": "uint256"
            }
          ],
          "internalType": "struct IERC3475.Transaction[]",
          "name": "transactions",
          "type": "tuple[]"
        }
      ],
      "name": "issue",
      "outputs": [],
      "stateMutability": "nonpayable",
      "type": "function"
    },
    {
      "inputs": [
        {
          "internalType": "uint256",
          "name": "classId",
          "type": "uint256"
        },
        {
          "internalType": "uint256[]",
          "name": "metadataIds",
          "type": "uint256[]"
        },
        {
          "components": [
            {
              "internalType": "string",
              "name": "stringValue",
              "type": "string"
            },
            {
              "internalType": "uint256",
              "name": "uintValue",
              "type": "uint256"
            },
            {
              "internalType": "address",
              "name": "addressValue",
              "type": "address"
            },
            {
              "internalType": "bool",
              "name": "boolValue",
              "type": "bool"
            }
          ],
          "internalType": "struct IERC3475.Values[]",
          "name": "values",
          "type": "tuple[]"
        }
      ],
      "name": "createClass",
      "outputs": [],
      "stateMutability": "nonpayable",
      "type": "function"
    },
    {
      "inputs": [
        {
          "internalType": "uint256",
          "name": "classId",
          "type": "uint256"
        },
        {
          "internalType": "uint256",
          "name": "nonceId",
          "type": "uint256"
        },
        {
          "internalType": "uint256[]",
          "name": "metadataIds",
          "type": "uint256[]"
        },
        {
          "components": [
            {
              "internalType": "string",
              "name": "stringValue",
              "type": "string"
            },
            {
              "internalType": "uint256",
              "name": "uintValue",
              "type": "uint256"
            },
            {
              "internalType": "address",
              "name": "addressValue",
              "type": "address"
            },
            {
              "internalType": "bool",
              "name": "boolValue",
              "type": "bool"
            }
          ],
          "internalType": "struct IERC3475.Values[]",
          "name": "values",
          "type": "tuple[]"
        }
      ],
      "name": "createNonce",
      "outputs": [],
      "stateMutability": "nonpayable",
      "type": "function"
    },
    {
      "inputs": [
        {
          "internalType": "address",
          "name": "from",
          "type": "address"
        },
        {
          "internalType": "address",
          "name": "to",
          "type": "address"
        },
        {
          "components": [
            {
              "internalType": "uint256",
              "name": "classId",
              "type": "uint256"
            },
            {
              "internalType": "uint256",
              "name": "nonceId",
              "type": "uint256"
            },
            {
              "internalType": "uint256",
              "name": "amount",
              "type": "uint256"
            }
          ],
          "internalType": "struct IERC3475.Transaction[]",
          "name": "transactions",
          "type": "tuple[]"
        }
      ],
      "name": "transferFrom",
      "outputs": [],
      "stateMutability": "nonpayable",
      "type": "function"
    },
    {
      "inputs": [
        {
          "internalType": "address",
          "name": "from",
          "type": "address"
        },
        {
          "internalType": "address",
          "name": "to",
          "type": "address"
        },
        {
          "components": [
            {
              "internalType": "uint256",
              "name": "classId",
              "type": "uint256"
            },
            {
              "internalType": "uint256",
              "name": "nonceId",
              "type": "uint256"
            },
            {
              "internalType": "uint256",
              "name": "amount",
              "type": "uint256"
            }
          ],
          "internalType": "struct IERC3475.Transaction[]",
          "name": "transactions_from",
          "type": "tuple[]"
        },
        {
          "components": [
            {
              "internalType": "uint256",
              "name": "classId",
              "type": "uint256"
            },
            {
              "internalType": "uint256",
              "name": "nonceId",
              "type": "uint256"
            },
            {
              "internalType": "uint256",
              "name": "amount",
              "type": "uint256"
            }
          ],
          "internalType": "struct IERC3475.Transaction[]",
          "name": "transactions_to",
          "type": "tuple[]"
        }
      ],
      "name": "convert",
      "outputs": [],
      "stateMutability": "nonpayable",
      "type": "function"
    },
    {
      "inputs": [
        {
          "internalType": "address",
          "name": "from",
          "type": "address"
        },
        {
          "internalType": "address",
          "name": "to",
          "type": "address"
        },
        {
          "components": [
            {
              "internalType": "uint256",
              "name": "classId",
              "type": "uint256"
            },
            {
              "internalType": "uint256",
              "name": "nonceId",
              "type": "uint256"
            },
            {
              "internalType": "uint256",
              "name": "amount",
              "type": "uint256"
            }
          ],
          "internalType": "struct IERC3475.Transaction[]",
          "name": "transactions",
          "type": "tuple[]"
        }
      ],
      "name": "transferAllowanceFrom",
      "outputs": [],
      "stateMutability": "nonpayable",
      "type": "function"
    },
    {
      "inputs": [
        {
          "internalType": "address",
          "name": "from",
          "type": "address"
        },
        {
          "components": [
            {
              "internalType": "uint256",
              "name": "classId",
              "type": "uint256"
            },
            {
              "internalType": "uint256",
              "name": "nonceId",
              "type": "uint256"
            },
            {
              "internalType": "uint256",
              "name": "amount",
              "type": "uint256"
            }
          ],
          "internalType": "struct IERC3475.Transaction[]",
          "name": "_transactions",
          "type": "tuple[]"
        }
      ],
      "name": "redeem",
      "outputs": [],
      "stateMutability": "nonpayable",
      "type": "function"
    },
    {
      "inputs": [
        {
          "internalType": "address",
          "name": "from",
          "type": "address"
        },
        {
          "components": [
            {
              "internalType": "uint256",
              "name": "classId",
              "type": "uint256"
            },
            {
              "internalType": "uint256",
              "name": "nonceId",
              "type": "uint256"
            },
            {
              "internalType": "uint256",
              "name": "amount",
              "type": "uint256"
            }
          ],
          "internalType": "struct IERC3475.Transaction[]",
          "name": "transactions",
          "type": "tuple[]"
        }
      ],
      "name": "burn",
      "outputs": [],
      "stateMutability": "nonpayable",
      "type": "function"
    },
    {
      "inputs": [
        {
          "internalType": "address",
          "name": "spender",
          "type": "address"
        },
        {
          "components": [
            {
              "internalType": "uint256",
              "name": "classId",
              "type": "uint256"
            },
            {
              "internalType": "uint256",
              "name": "nonceId",
              "type": "uint256"
            },
            {
              "internalType": "uint256",
              "name": "amount",
              "type": "uint256"
            }
          ],
          "internalType": "struct IERC3475.Transaction[]",
          "name": "transactions",
          "type": "tuple[]"
        }
      ],
      "name": "approve",
      "outputs": [],
      "stateMutability": "nonpayable",
      "type": "function"
    },
    {
      "inputs": [
        {
          "internalType": "address",
          "name": "operator",
          "type": "address"
        },
        {
          "internalType": "bool",
          "name": "approved",
          "type": "bool"
        }
      ],
      "name": "setApprovalFor",
      "outputs": [],
      "stateMutability": "nonpayable",
      "type": "function"
    },
    {
      "inputs": [
        {
          "internalType": "uint256",
          "name": "classId",
          "type": "uint256"
        },
        {
          "internalType": "uint256",
          "name": "nonceId",
          "type": "uint256"
        }
      ],
      "name": "getProgress",
      "outputs": [
        {
          "internalType": "uint256",
          "name": "progressAchieved",
          "type": "uint256"
        },
        {
          "internalType": "uint256",
          "name": "progressRemaining",
          "type": "uint256"
        }
      ],
      "stateMutability": "view",
      "type": "function"
    },
    {
      "inputs": [
        {
          "internalType": "uint256",
          "name": "classId",
          "type": "uint256"
        }
      ],
      "name": "getLastNonceCreated",
      "outputs": [
        {
          "internalType": "uint256",
          "name": "nonceId",
          "type": "uint256"
        },
        {
          "internalType": "uint256",
          "name": "createdAt",
          "type": "uint256"
        }
      ],
      "stateMutability": "view",
      "type": "function"
    },
    {
      "inputs": [
        {
          "internalType": "uint256",
          "name": "classId",
          "type": "uint256"
        }
      ],
      "name": "classExists",
      "outputs": [
        {
          "internalType": "bool",
          "name": "",
          "type": "bool"
        }
      ],
      "stateMutability": "view",
      "type": "function"
    },
    {
      "inputs": [
        {
          "internalType": "uint256",
          "name": "classId",
          "type": "uint256"
        },
        {
          "internalType": "uint256",
          "name": "nonceId",
          "type": "uint256"
        }
      ],
      "name": "nonceExists",
      "outputs": [
        {
          "internalType": "bool",
          "name": "",
          "type": "bool"
        }
      ],
      "stateMutability": "view",
      "type": "function"
    },
    {
      "inputs": [
        {
          "internalType": "uint256",
          "name": "classId",
          "type": "uint256"
        }
      ],
      "name": "classLiquidity",
      "outputs": [
        {
          "internalType": "uint256",
          "name": "",
          "type": "uint256"
        }
      ],
      "stateMutability": "view",
      "type": "function"
    },
    {
      "inputs": [
        {
          "internalType": "uint256[]",
          "name": "classIds",
          "type": "uint256[]"
        }
      ],
      "name": "classLiquidityBatch",
      "outputs": [
        {
          "internalType": "uint256[]",
          "name": "",
          "type": "uint256[]"
        }
      ],
      "stateMutability": "view",
      "type": "function"
    },
    {
      "inputs": [
        {
          "internalType": "uint256",
          "name": "classId",
          "type": "uint256"
        },
        {
          "internalType": "uint256",
          "name": "nonceId",
          "type": "uint256"
        },
        {
          "internalType": "uint256",
          "name": "searchNonceLimit",
          "type": "uint256"
        }
      ],
      "name": "classLiquidityAtNonce",
      "outputs": [
        {
          "internalType": "uint256",
          "name": "",
          "type": "uint256"
        }
      ],
      "stateMutability": "view",
      "type": "function"
    },
    {
      "inputs": [
        {
          "internalType": "uint256",
          "name": "classId",
          "type": "uint256"
        },
        {
          "internalType": "uint256",
          "name": "nonceId",
          "type": "uint256"
        }
      ],
      "name": "totalSupply",
      "outputs": [
        {
          "internalType": "uint256",
          "name": "",
          "type": "uint256"
        }
      ],
      "stateMutability": "view",
      "type": "function"
    },
    {
      "inputs": [
        {
          "internalType": "uint256",
          "name": "classId",
          "type": "uint256"
        },
        {
          "internalType": "uint256",
          "name": "nonceId",
          "type": "uint256"
        }
      ],
      "name": "activeSupply",
      "outputs": [
        {
          "internalType": "uint256",
          "name": "",
          "type": "uint256"
        }
      ],
      "stateMutability": "view",
      "type": "function"
    },
    {
      "inputs": [
        {
          "internalType": "uint256",
          "name": "classId",
          "type": "uint256"
        },
        {
          "internalType": "uint256",
          "name": "nonceId",
          "type": "uint256"
        }
      ],
      "name": "burnedSupply",
      "outputs": [
        {
          "internalType": "uint256",
          "name": "",
          "type": "uint256"
        }
      ],
      "stateMutability": "view",
      "type": "function"
    },
    {
      "inputs": [
        {
          "internalType": "uint256",
          "name": "classId",
          "type": "uint256"
        },
        {
          "internalType": "uint256",
          "name": "nonceId",
          "type": "uint256"
        }
      ],
      "name": "redeemedSupply",
      "outputs": [
        {
          "internalType": "uint256",
          "name": "",
          "type": "uint256"
        }
      ],
      "stateMutability": "view",
      "type": "function"
    },
    {
      "inputs": [
        {
          "internalType": "address",
          "name": "account",
          "type": "address"
        },
        {
          "internalType": "uint256",
          "name": "classId",
          "type": "uint256"
        },
        {
          "internalType": "uint256",
          "name": "nonceId",
          "type": "uint256"
        }
      ],
      "name": "balanceOf",
      "outputs": [
        {
          "internalType": "uint256",
          "name": "",
          "type": "uint256"
        }
      ],
      "stateMutability": "view",
      "type": "function"
    },
    {
      "inputs": [
        {
          "internalType": "uint256",
          "name": "classId",
          "type": "uint256"
        },
        {
          "internalType": "uint256",
          "name": "metadataId",
          "type": "uint256"
        }
      ],
      "name": "classValues",
      "outputs": [
        {
          "components": [
            {
              "internalType": "string",
              "name": "stringValue",
              "type": "string"
            },
            {
              "internalType": "uint256",
              "name": "uintValue",
              "type": "uint256"
            },
            {
              "internalType": "address",
              "name": "addressValue",
              "type": "address"
            },
            {
              "internalType": "bool",
              "name": "boolValue",
              "type": "bool"
            }
          ],
          "internalType": "struct IERC3475.Values",
          "name": "",
          "type": "tuple"
        }
      ],
      "stateMutability": "view",
      "type": "function"
    },
    {
      "inputs": [
        {
          "internalType": "uint256",
          "name": "classId",
          "type": "uint256"
        },
        {
          "internalType": "uint256",
          "name": "nonceId",
          "type": "uint256"
        },
        {
          "internalType": "uint256",
          "name": "metadataId",
          "type": "uint256"
        }
      ],
      "name": "nonceValues",
      "outputs": [
        {
          "components": [
            {
              "internalType": "string",
              "name": "stringValue",
              "type": "string"
            },
            {
              "internalType": "uint256",
              "name": "uintValue",
              "type": "uint256"
            },
            {
              "internalType": "address",
              "name": "addressValue",
              "type": "address"
            },
            {
              "internalType": "bool",
              "name": "boolValue",
              "type": "bool"
            }
          ],
          "internalType": "struct IERC3475.Values",
          "name": "",
          "type": "tuple"
        }
      ],
      "stateMutability": "view",
      "type": "function"
    },
    {
      "inputs": [
        {
          "internalType": "uint256",
          "name": "metadataId",
          "type": "uint256"
        }
      ],
      "name": "classMetadata",
      "outputs": [
        {
          "components": [
            {
              "internalType": "string",
              "name": "title",
              "type": "string"
            },
            {
              "internalType": "string",
              "name": "types",
              "type": "string"
            },
            {
              "internalType": "string",
              "name": "description",
              "type": "string"
            }
          ],
          "internalType": "struct IERC3475.Metadata",
          "name": "",
          "type": "tuple"
        }
      ],
      "stateMutability": "view",
      "type": "function"
    },
    {
      "inputs": [
        {
          "internalType": "uint256",
          "name": "classId",
          "type": "uint256"
        },
        {
          "internalType": "uint256",
          "name": "metadataId",
          "type": "uint256"
        }
      ],
      "name": "nonceMetadata",
      "outputs": [
        {
          "components": [
            {
              "internalType": "string",
              "name": "title",
              "type": "string"
            },
            {
              "internalType": "string",
              "name": "types",
              "type": "string"
            },
            {
              "internalType": "string",
              "name": "description",
              "type": "string"
            }
          ],
          "internalType": "struct IERC3475.Metadata",
          "name": "",
          "type": "tuple"
        }
      ],
      "stateMutability": "view",
      "type": "function"
    },
    {
      "inputs": [
        {
          "internalType": "address",
          "name": "owner",
          "type": "address"
        },
        {
          "internalType": "address",
          "name": "spender",
          "type": "address"
        },
        {
          "internalType": "uint256",
          "name": "classId",
          "type": "uint256"
        },
        {
          "internalType": "uint256",
          "name": "nonceId",
          "type": "uint256"
        }
      ],
      "name": "allowance",
      "outputs": [
        {
          "internalType": "uint256",
          "name": "",
          "type": "uint256"
        }
      ],
      "stateMutability": "view",
      "type": "function"
    },
    {
      "inputs": [
        {
          "internalType": "address",
          "name": "owner",
          "type": "address"
        },
        {
          "internalType": "address",
          "name": "operator",
          "type": "address"
        }
      ],
      "name": "isApprovedFor",
      "outputs": [
        {
          "internalType": "bool",
          "name": "",
          "type": "bool"
        }
      ],
      "stateMutability": "view",
      "type": "function"
    }
  ],
  "bytecode": "0x60806040523480156200001157600080fd5b5060405162003b3d38038062003b3d83398101604081905262000034916200005f565b600080546001600160a81b0319166001600160a01b0390921691909117600160a01b17905562000091565b6000602082840312156200007257600080fd5b81516001600160a01b03811681146200008a57600080fd5b9392505050565b613a9c80620000a16000396000f3fe608060405234801561001057600080fd5b50600436106102325760003560e01c806366aeb6de116101305780639d3fed38116100b8578063c7da92e11161007c578063c7da92e11461059a578063cc4aa30b146105ad578063ccea7b86146105cd578063f3273696146105ff578063fc7d76e11461061257600080fd5b80639d3fed38146104ff578063b15edbe514610512578063bc3c19f714610544578063c2458d6b14610574578063c4cfc2931461058757600080fd5b806388dad954116100ff57806388dad9541461047e5780638a38e419146104915780638b618170146104a45780638be3ab65146104b7578063966d0d90146104ec57600080fd5b806366aeb6de14610401578063693f5548146104385780637228cfaf146104585780637ef6b9fd1461046b57600080fd5b8063252f0c8b116101be57806342d47e9f1161018257806342d47e9f1461038d578063443b63b9146103a05780634bb95aa2146103b357806350a9f394146103c6578063572e5ef2146103d957600080fd5b8063252f0c8b146103205780632750fc78146103335780632d760d571461034657806339b71aa3146103675780633cf3a6041461037a57600080fd5b8063115c95a311610205578063115c95a3146102a657806319ab3939146102b95780631d12fdb9146102cc5780631fa03a2b146102f257806323204efe1461030557600080fd5b8063029ba4eb146102375780630d345f4f146102605780630d60ea1914610275578063114c611e14610293575b600080fd5b61024a610245366004612c07565b610625565b6040516102579190612c76565b60405180910390f35b61027361026e366004612d33565b61082c565b005b600054600160a01b900460ff165b6040519015158152602001610257565b6102736102a1366004612dcb565b6109cc565b6102736102b4366004612fb0565b610bc2565b6102736102c7366004612d33565b610c89565b6102836102da366004612fff565b60009081526003602052604090206001015460ff1690565b610283610300366004613018565b610ede565b6000546040516001600160a01b039091168152602001610257565b61027361032e366004613051565b610f0c565b61027361034136600461307c565b610f7e565b610359610354366004613099565b610fc6565b604051908152602001610257565b6102736103753660046130ce565b61106c565b61024a610388366004612fff565b611200565b61035961039b366004613147565b6113f9565b6103596103ae366004613173565b611501565b6102736103c13660046131b9565b611544565b6102736103d43660046131e7565b6115b0565b6103ec6103e7366004612c07565b61163b565b60408051928352602083019190915201610257565b61035961040f366004612fff565b600090815260036020908152604080832060058082015485526004909101909252909120015490565b61044b610446366004613147565b6116bf565b604051610257919061322d565b610273610466366004612d33565b6117de565b61027361047936600461338a565b6118a0565b61027361048c3660046133e3565b6119da565b6103ec61049f366004612fff565b611b7e565b6102736104b2366004613447565b611c05565b6102836104c5366004612c07565b60009182526003602090815260408084209284526004909201905290206001015460ff1690565b6102736104fa366004613051565b611ddf565b61027361050d366004612d33565b611e51565b610359610520366004612c07565b60009182526003602090815260408084209284526004909201905290206002015490565b610359610552366004612c07565b6000918252600360208181526040808520938552600490930190529120015490565b610359610582366004612c07565b612088565b610273610595366004613051565b6120c9565b61044b6105a8366004612c07565b612115565b6105c06105bb3660046134c9565b612228565b604051610257919061350a565b6103596105db366004612c07565b60009182526003602090815260408084209284526004928301909152909120015490565b61027361060d3660046133e3565b6122f7565b61027361062036600461354e565b612517565b61064960405180606001604052806060815260200160608152602001606081525090565b600083815260036020818152604080842086855290920190529081902081516060810190925280548290829061067e906135b0565b80601f01602080910402602001604051908101604052809291908181526020018280546106aa906135b0565b80156106f75780601f106106cc576101008083540402835291602001916106f7565b820191906000526020600020905b8154815290600101906020018083116106da57829003601f168201915b50505050508152602001600182018054610710906135b0565b80601f016020809104026020016040519081016040528092919081815260200182805461073c906135b0565b80156107895780601f1061075e57610100808354040283529160200191610789565b820191906000526020600020905b81548152906001019060200180831161076c57829003601f168201915b505050505081526020016002820180546107a2906135b0565b80601f01602080910402602001604051908101604052809291908181526020018280546107ce906135b0565b801561081b5780601f106107f05761010080835404028352916020019161081b565b820191906000526020600020905b8154815290600101906020018083116107fe57829003601f168201915b505050505081525050905092915050565b6001546001600160a01b0316331461085f5760405162461bcd60e51b8152600401610856906135ea565b60405180910390fd5b6001600160a01b0383166108855760405162461bcd60e51b81526004016108569061362d565b60005b8181101561097957336001600160a01b03851614806108ac57506108ac8433610ede565b61090a5760405162461bcd60e51b815260206004820152602960248201527f455243333437353a2063616c6c6572206973206e6f74206f776e6572206e6f7260448201526808185c1c1c9bdd995960ba1b6064820152608401610856565b6109678484848481811061092057610920613678565b9050606002016000013585858581811061093c5761093c613678565b9050606002016020013586868681811061095857610958613678565b90506060020160400135612691565b80610971816136a4565b915050610888565b50826001600160a01b0316336001600160a01b03167f854463ea9c50bdbcc2ee7d49731da876b9a8a76ac599ea54b87fc3bf49dd4bbc84846040516109bf929190613708565b60405180910390a3505050565b6001546001600160a01b031633146109f65760405162461bcd60e51b8152600401610856906135ea565b828114610a3d5760405162461bcd60e51b815260206004820152601560248201527422a921999a1b9a9d1034b7383aba399032b93937b960591b6044820152606401610856565b60008681526003602052604090206001015460ff16610a6e5760405162461bcd60e51b815260040161085690613724565b600086815260036020908152604080832088845260048101909252909120600181015460ff1615610ae15760405162461bcd60e51b815260206004820152601e60248201527f4465626f6e64455243333437353a206e6f6e63654964206578697374732100006044820152606401610856565b8681556001808201805460ff191690911790556000888152600360209081526040808320600580820154855260049091019092528220810154908301555b85811015610ba757848482818110610b3957610b39613678565b9050602002810190610b4b9190613765565b6000898152600485016020526040812060070190898985818110610b7157610b71613678565b9050602002013581526020019081526020016000208181610b9291906137eb565b50819050610b9f816136a4565b915050610b1f565b50506005810195909555505042600690930192909255505050565b6001546001600160a01b03163314610bec5760405162461bcd60e51b8152600401610856906135ea565b60008381526003602052604090206001015460ff16610c1d5760405162461bcd60e51b815260040161085690613724565b600083815260036020818152604080842086855290920181529120825180518493610c4c928492910190612b6e565b506020828101518051610c659260018501920190612b6e565b5060408201518051610c81916002840191602090910190612b6e565b505050505050565b6001546001600160a01b03163314610cb35760405162461bcd60e51b8152600401610856906135ea565b6001600160a01b038316610cd95760405162461bcd60e51b81526004016108569061362d565b60005b81811015610e98576000838383818110610cf857610cf8613678565b9050606002016000013590506000848484818110610d1857610d18613678565b9050606002016020013590506000858585818110610d3857610d38613678565b6000868152600360205260409081902060010154606090920293909301929092013592505060ff16610dc35760405162461bcd60e51b815260206004820152602e60248201527f455243333437353a206f6e6c7920697373756520626f6e64207468617420686160448201526d1cc81899595b8818dc99585d195960921b6064820152608401610856565b600083815260036020908152604080832085845260040190915290206001015460ff16610e3d5760405162461bcd60e51b815260206004820152602260248201527f4552432d333437353a206e6f6e6365496420676976656e206e6f7420666f756e604482015261642160f01b6064820152608401610856565b610e498784848461277f565b6000838152600360209081526040808320858452600401909152812060058101805491928492610e7a90849061393a565b92505081905550505050508080610e90906136a4565b915050610cdc565b50826001600160a01b0316336001600160a01b03167f4623e64c229a38d0d39f345a5636f4aaad36652b7a59cc3cfee2b2e2cf37bdf384846040516109bf929190613708565b6001600160a01b03918216600090815260056020908152604080832093909416825291909152205460ff1690565b6000546001600160a01b03163314610f365760405162461bcd60e51b815260040161085690613952565b6001600160a01b038116610f5c5760405162461bcd60e51b81526004016108569061399f565b600180546001600160a01b0319166001600160a01b0392909216919091179055565b6000546001600160a01b03163314610fa85760405162461bcd60e51b815260040161085690613952565b60008054911515600160a01b0260ff60a01b19909216919091179055565b60006001600160a01b0384166110325760405162461bcd60e51b815260206004820152602b60248201527f455243333437353a2062616c616e636520717565727920666f7220746865207a60448201526a65726f206164647265737360a81b6064820152608401610856565b50600082815260036020908152604080832084845260040182528083206001600160a01b03871684526008019091529020545b9392505050565b6001546001600160a01b031633146110965760405162461bcd60e51b8152600401610856906135ea565b8281146110dd5760405162461bcd60e51b815260206004820152601560248201527422a921999a1b9a9d1034b7383aba399032b93937b960591b6044820152606401610856565b60008581526003602052604090206001015460ff161561115a5760405162461bcd60e51b815260206004820152603260248201527f455243333437353a2063616e6e6f7420637265617465206120636c617373207460448201527168617420616c72656164792065786973747360701b6064820152608401610856565b60008581526003602052604081208681556001808201805460ff19169091179055905b848110156111f75783838281811061119757611197613678565b90506020028101906111a99190613765565b8260020160008888858181106111c1576111c1613678565b90506020020135815260200190815260200160002081816111e291906137eb565b508190506111ef816136a4565b91505061117d565b50505050505050565b61122460405180606001604052806060815260200160608152602001606081525090565b6000828152600460205260409081902081516060810190925280548290829061124c906135b0565b80601f0160208091040260200160405190810160405280929190818152602001828054611278906135b0565b80156112c55780601f1061129a576101008083540402835291602001916112c5565b820191906000526020600020905b8154815290600101906020018083116112a857829003601f168201915b505050505081526020016001820180546112de906135b0565b80601f016020809104026020016040519081016040528092919081815260200182805461130a906135b0565b80156113575780601f1061132c57610100808354040283529160200191611357565b820191906000526020600020905b81548152906001019060200180831161133a57829003601f168201915b50505050508152602001600282018054611370906135b0565b80601f016020809104026020016040519081016040528092919081815260200182805461139c906135b0565b80156113e95780601f106113be576101008083540402835291602001916113e9565b820191906000526020600020905b8154815290600101906020018083116113cc57829003601f168201915b5050505050815250509050919050565b6000838152600360209081526040808320600580820154855260049091019092528220015460000361142d57506000611065565b6000848152600360205260409020600501548084111561146e5760008581526003602090815260408083209383526004909301905220600501549050611065565b600085815260036020908152604080832087845260040190915290206001015460ff166114da575b600085815260036020908152604080832087845260040190915290206001015460ff161580156114c557508284115b156114da576114d3846139ef565b9350611496565b50505060009182526003602090815260408084209284526004909201905290206005015490565b6000918252600360209081526040808420928452600490920181528183206001600160a01b03958616845260090181528183209390941682529190925290205490565b3360008181526005602090815260408083206001600160a01b03871680855290835292819020805460ff191686151590811790915590519081529192917f3a950f10bb6df353a4ab85913de7c26461edd1b6250912c3ddcbe92b91643584910160405180910390a35050565b6001546001600160a01b031633146115da5760405162461bcd60e51b8152600401610856906135ea565b60008281526004602090815260409091208251805184936115ff928492910190612b6e565b5060208281015180516116189260018501920190612b6e565b5060408201518051611634916002840191602090910190612b6e565b5050505050565b600154604051632b972f7960e11b8152600481018490526024810183905260009182916001600160a01b039091169063572e5ef2906044016040805180830381865afa15801561168f573d6000803e3d6000fd5b505050506040513d601f19601f820116820180604052508101906116b39190613a06565b915091505b9250929050565b6040805160808101825260608082526000602083018190529282018390528101919091526000848152600360209081526040808320868452600401825280832085845260070190915290819020815160808101909252805482908290611724906135b0565b80601f0160208091040260200160405190810160405280929190818152602001828054611750906135b0565b801561179d5780601f106117725761010080835404028352916020019161179d565b820191906000526020600020905b81548152906001019060200180831161178057829003601f168201915b5050509183525050600182015460208201526002909101546001600160a01b0381166040830152600160a01b900460ff161515606090910152949350505050565b60005b8181101561189a578282828181106117fb576117fb613678565b905060600201604001356003600085858581811061181b5761181b613678565b905060600201600001358152602001908152602001600020600401600085858581811061184a5761184a613678565b60600291909101602090810135835282810193909352506040908101600090812033825260090183528181206001600160a01b038916825290925290205580611892816136a4565b9150506117e1565b50505050565b6001546001600160a01b031633146118ca5760405162461bcd60e51b8152600401610856906135ea565b805182511461191b5760405162461bcd60e51b815260206004820152601f60248201527f4465626f6e64455243333437353a20496e636f727265637420696e70757473006044820152606401610856565b60005b82518110156119d55781818151811061193957611939613678565b60200260200101516004600085848151811061195757611957613678565b602002602001015181526020019081526020016000206000820151816000019080519060200190611989929190612b6e565b5060208281015180516119a29260018501920190612b6e565b50604082015180516119be916002840191602090910190612b6e565b5090505080806119cd906136a4565b91505061191e565b505050565b60005b81811015611b205760008383838181106119f9576119f9613678565b905060600201600001359050611a218160009081526003602052604090206001015460ff1690565b611a3d5760405162461bcd60e51b815260040161085690613724565b336001600160a01b0387161480611a595750611a598633610ede565b611abd5760405162461bcd60e51b815260206004820152602f60248201527f4465626f6e64455243333437353a2063616c6c6572206973206e6f74206f776e60448201526e195c881b9bdc88185c1c1c9bdd9959608a1b6064820152608401610856565b6000848484818110611ad157611ad1613678565b9050606002016020013590506000858585818110611af157611af1613678565b905060600201604001359050611b0a8888858585612858565b5050508080611b18906136a4565b9150506119dd565b50826001600160a01b0316846001600160a01b0316336001600160a01b03167f75fabf31534d6cddc003931b8cffc1effeea3ee3125535e609d386c8bf9ebdc48585604051611b70929190613708565b60405180910390a450505050565b6000818152600360205260408120600181015482919060ff16611bf15760405162461bcd60e51b815260206004820152602560248201527f4465626f6e6420446174613a20636c61737320696420676976656e206e6f7420604482015264199bdd5b9960da1b6064820152608401610856565b806005015492508060060154915050915091565b828114611c545760405162461bcd60e51b815260206004820152601b60248201527f73686f756c642068617665207468652073616d65206c656e67746800000000006044820152606401610856565b60005b83811015611d89576000858583818110611c7357611c73613678565b9050606002016000013590506000848484818110611c9357611c93613678565b9050606002016000013590506000878785818110611cb357611cb3613678565b9050606002016020013590506000868686818110611cd357611cd3613678565b9050606002016020013590506000898987818110611cf357611cf3613678565b9050606002016040013590506000888888818110611d1357611d13613678565b905060600201604001359050611d2b8d878685612691565b611d378c86858461277f565b6000858152600360209081526040808320868452600401909152812060058101805491928492611d6890849061393a565b92505081905550505050505050508080611d81906136a4565b915050611c57565b50856001600160a01b0316336001600160a01b03167f854463ea9c50bdbcc2ee7d49731da876b9a8a76ac599ea54b87fc3bf49dd4bbc8686604051611dcf929190613708565b60405180910390a3505050505050565b6000546001600160a01b03163314611e095760405162461bcd60e51b815260040161085690613952565b6001600160a01b038116611e2f5760405162461bcd60e51b81526004016108569061399f565b600280546001600160a01b0319166001600160a01b0392909216919091179055565b60005b81811015611fdc576000838383818110611e7057611e70613678565b9050606002016000013590506000848484818110611e9057611e90613678565b9050606002016020013590506000858585818110611eb057611eb0613678565b60008681526003602090815260408083208884526004019091529081902060010154606090920293909301929092013592505060ff16611f3d5760405162461bcd60e51b815260206004820152602260248201527f455243333437353a20676976656e204e6f6e636520646f65736e2774206578696044820152611cdd60f21b6064820152608401610856565b6001600160a01b038716611f635760405162461bcd60e51b81526004016108569061362d565b6000611f6f848461163b565b9150508015611fb95760405162461bcd60e51b8152602060048201526016602482015275426f6e64206973206e6f742072656465656d61626c6560501b6044820152606401610856565b611fc588858585612983565b505050508080611fd4906136a4565b915050611e54565b50600254604051631aae8d0d60e31b81526001600160a01b039091169063d57468689061201190869086908690600401613a2a565b600060405180830381600087803b15801561202b57600080fd5b505af115801561203f573d6000803e3d6000fd5b50505050826001600160a01b0316336001600160a01b03167f9f652ddea6a7fd228f90e8d46f86b0e86d8299f8ca1415c7d6ab58bbe1cd632c84846040516109bf929190613708565b600082815260036020818152604080842085855260049081019092528320918201549082015460029092015490916120bf9161393a565b611065919061393a565b6000546001600160a01b031633146120f35760405162461bcd60e51b815260040161085690613952565b600080546001600160a01b0319166001600160a01b0392909216919091179055565b60408051608081018252606080825260006020830181905292820183905281019190915260008381526003602090815260408083208584526002019091529081902081516080810190925280548290829061216f906135b0565b80601f016020809104026020016040519081016040528092919081815260200182805461219b906135b0565b80156121e85780601f106121bd576101008083540402835291602001916121e8565b820191906000526020600020905b8154815290600101906020018083116121cb57829003601f168201915b5050509183525050600182015460208201526002909101546001600160a01b0381166040830152600160a01b900460ff1615156060909101529392505050565b60606000826001600160401b0381111561224457612244612e4d565b60405190808252806020026020018201604052801561226d578160200160208202803683370190505b50905060005b838110156122ef576122c085858381811061229057612290613678565b90506020020135600090815260036020908152604080832060058082015485526004909101909252909120015490565b8282815181106122d2576122d2613678565b6020908102919091010152806122e7816136a4565b915050612273565b509392505050565b6001600160a01b0384166123695760405162461bcd60e51b815260206004820152603360248201527f4465626f6e64455243333437353a2063616e2774207472616e736665722066726044820152726f6d20746865207a65726f206164647265737360681b6064820152608401610856565b6001600160a01b0383166123d95760405162461bcd60e51b815260206004820152603160248201527f4465626f6e64455243333437353a2063616e2774207472616e7366657220746f60448201527020746865207a65726f206164647265737360781b6064820152608401610856565b60005b81811015611b205761242685338585858181106123fb576123fb613678565b9050606002016000013586868681811061241757612417613678565b90506060020160200135611501565b83838381811061243857612438613678565b9050606002016040013511156124a75760405162461bcd60e51b815260206004820152602e60248201527f4465626f6e64455243333437353a2063616c6c657220686173206e6f7420656e60448201526d6f75676820616c6c6f77616e636560901b6064820152608401610856565b61250585858585858181106124be576124be613678565b905060600201600001358686868181106124da576124da613678565b905060600201602001358787878181106124f6576124f6613678565b90506060020160400135612858565b8061250f816136a4565b9150506123dc565b6001546001600160a01b031633146125415760405162461bcd60e51b8152600401610856906135ea565b60008381526003602052604090206001015460ff166125725760405162461bcd60e51b815260040161085690613724565b80518251146125c35760405162461bcd60e51b815260206004820152601f60248201527f4465626f6e64455243333437353a20496e636f727265637420696e70757473006044820152606401610856565b60005b825181101561189a578181815181106125e1576125e1613678565b602002602001015160036000868152602001908152602001600020600301600085848151811061261357612613613678565b602002602001015181526020019081526020016000206000820151816000019080519060200190612645929190612b6e565b50602082810151805161265e9260018501920190612b6e565b506040820151805161267a916002840191602090910190612b6e565b509050508080612689906136a4565b9150506125c6565b600083815260036020908152604080832085845260040182528083206001600160a01b03881684526008019091529020548111156126ce57600080fd5b600083815260036020908152604080832085845260040182528083206001600160a01b03881684526008019091528120805483929061270e908490613a4f565b9091555050600083815260036020908152604080832085845260040190915281206002018054839290612742908490613a4f565b90915550506000838152600360208181526040808420868552600401909152822001805483929061277490849061393a565b909155505050505050565b600081116127e45760405162461bcd60e51b815260206004820152602c60248201527f4465626f6e64455243333437353a20616d6f756e74206d75737420626520677260448201526b06561746572207468616e20360a41b6064820152608401610856565b600083815260036020908152604080832085845260040182528083206001600160a01b03881684526008019091528120805483929061282490849061393a565b909155505060008381526003602090815260408083208584526004019091528120600201805483929061277490849061393a565b6001600160a01b0385166128c45760405162461bcd60e51b815260206004820152602d60248201527f455243333437353a2063616e2774207472616e736665722066726f6d2074686560448201526c207a65726f206164647265737360981b6064820152608401610856565b6001600160a01b0384166128ea5760405162461bcd60e51b81526004016108569061362d565b600083815260036020908152604080832085845260040182528083206001600160a01b03891684526008019091529020548111156129765760405162461bcd60e51b8152602060048201526024808201527f455243333437353a206e6f7420656e6f75676820626f6e6420746f207472616e60448201526339b332b960e11b6064820152608401610856565b6116348585858585612a68565b600083815260036020908152604080832085845260040182528083206001600160a01b03881684526008019091529020548111156129c057600080fd5b600083815260036020908152604080832085845260040182528083206001600160a01b038816845260080190915281208054839290612a00908490613a4f565b9091555050600083815260036020908152604080832085845260040190915281206002018054839290612a34908490613a4f565b909155505060008381526003602090815260408083208584526004908101909252822001805483929061277490849061393a565b836001600160a01b0316856001600160a01b031603612add5760405162461bcd60e51b815260206004820152602b60248201527f455243333437353a2063616e2774207472616e7366657220746f20746865207360448201526a616d65206164647265737360a81b6064820152608401610856565b600083815260036020908152604080832085845260040182528083206001600160a01b038916845260080190915281208054839290612b1d908490613a4f565b9091555050600083815260036020908152604080832085845260040182528083206001600160a01b038816845260080190915281208054839290612b6290849061393a565b90915550505050505050565b828054612b7a906135b0565b90600052602060002090601f016020900481019282612b9c5760008555612be2565b82601f10612bb557805160ff1916838001178555612be2565b82800160010185558215612be2579182015b82811115612be2578251825591602001919060010190612bc7565b50612bee929150612bf2565b5090565b5b80821115612bee5760008155600101612bf3565b60008060408385031215612c1a57600080fd5b50508035926020909101359150565b6000815180845260005b81811015612c4f57602081850181015186830182015201612c33565b81811115612c61576000602083870101525b50601f01601f19169290920160200192915050565b602081526000825160606020840152612c926080840182612c29565b90506020840151601f1980858403016040860152612cb08383612c29565b9250604086015191508085840301606086015250612cce8282612c29565b95945050505050565b6001600160a01b0381168114612cec57600080fd5b50565b60008083601f840112612d0157600080fd5b5081356001600160401b03811115612d1857600080fd5b6020830191508360206060830285010111156116b857600080fd5b600080600060408486031215612d4857600080fd5b8335612d5381612cd7565b925060208401356001600160401b03811115612d6e57600080fd5b612d7a86828701612cef565b9497909650939450505050565b60008083601f840112612d9957600080fd5b5081356001600160401b03811115612db057600080fd5b6020830191508360208260051b85010111156116b857600080fd5b60008060008060008060808789031215612de457600080fd5b863595506020870135945060408701356001600160401b0380821115612e0957600080fd5b612e158a838b01612d87565b90965094506060890135915080821115612e2e57600080fd5b50612e3b89828a01612d87565b979a9699509497509295939492505050565b634e487b7160e01b600052604160045260246000fd5b604051601f8201601f191681016001600160401b0381118282101715612e8b57612e8b612e4d565b604052919050565b600082601f830112612ea457600080fd5b81356001600160401b03811115612ebd57612ebd612e4d565b612ed0601f8201601f1916602001612e63565b818152846020838601011115612ee557600080fd5b816020850160208301376000918101602001919091529392505050565b600060608284031215612f1457600080fd5b604051606081016001600160401b038282108183111715612f3757612f37612e4d565b816040528293508435915080821115612f4f57600080fd5b612f5b86838701612e93565b83526020850135915080821115612f7157600080fd5b612f7d86838701612e93565b60208401526040850135915080821115612f9657600080fd5b50612fa385828601612e93565b6040830152505092915050565b600080600060608486031215612fc557600080fd5b833592506020840135915060408401356001600160401b03811115612fe957600080fd5b612ff586828701612f02565b9150509250925092565b60006020828403121561301157600080fd5b5035919050565b6000806040838503121561302b57600080fd5b823561303681612cd7565b9150602083013561304681612cd7565b809150509250929050565b60006020828403121561306357600080fd5b813561106581612cd7565b8015158114612cec57600080fd5b60006020828403121561308e57600080fd5b81356110658161306e565b6000806000606084860312156130ae57600080fd5b83356130b981612cd7565b95602085013595506040909401359392505050565b6000806000806000606086880312156130e657600080fd5b8535945060208601356001600160401b038082111561310457600080fd5b61311089838a01612d87565b9096509450604088013591508082111561312957600080fd5b5061313688828901612d87565b969995985093965092949392505050565b60008060006060848603121561315c57600080fd5b505081359360208301359350604090920135919050565b6000806000806080858703121561318957600080fd5b843561319481612cd7565b935060208501356131a481612cd7565b93969395505050506040820135916060013590565b600080604083850312156131cc57600080fd5b82356131d781612cd7565b915060208301356130468161306e565b600080604083850312156131fa57600080fd5b8235915060208301356001600160401b0381111561321757600080fd5b61322385828601612f02565b9150509250929050565b60208152600082516080602084015261324960a0840182612c29565b90506020840151604084015260018060a01b0360408501511660608401526060840151151560808401528091505092915050565b60006001600160401b0382111561329657613296612e4d565b5060051b60200190565b600082601f8301126132b157600080fd5b813560206132c66132c18361327d565b612e63565b82815260059290921b840181019181810190868411156132e557600080fd5b8286015b8481101561330057803583529183019183016132e9565b509695505050505050565b600082601f83011261331c57600080fd5b8135602061332c6132c18361327d565b82815260059290921b8401810191818101908684111561334b57600080fd5b8286015b848110156133005780356001600160401b0381111561336e5760008081fd5b61337c8986838b0101612f02565b84525091830191830161334f565b6000806040838503121561339d57600080fd5b82356001600160401b03808211156133b457600080fd5b6133c0868387016132a0565b935060208501359150808211156133d657600080fd5b506132238582860161330b565b600080600080606085870312156133f957600080fd5b843561340481612cd7565b9350602085013561341481612cd7565b925060408501356001600160401b0381111561342f57600080fd5b61343b87828801612cef565b95989497509550505050565b6000806000806000806080878903121561346057600080fd5b863561346b81612cd7565b9550602087013561347b81612cd7565b945060408701356001600160401b038082111561349757600080fd5b6134a38a838b01612cef565b909650945060608901359150808211156134bc57600080fd5b50612e3b89828a01612cef565b600080602083850312156134dc57600080fd5b82356001600160401b038111156134f257600080fd5b6134fe85828601612d87565b90969095509350505050565b6020808252825182820181905260009190848201906040850190845b8181101561354257835183529284019291840191600101613526565b50909695505050505050565b60008060006060848603121561356357600080fd5b8335925060208401356001600160401b038082111561358157600080fd5b61358d878388016132a0565b935060408601359150808211156135a357600080fd5b50612ff58682870161330b565b600181811c908216806135c457607f821691505b6020821081036135e457634e487b7160e01b600052602260045260246000fd5b50919050565b60208082526023908201527f4465626f6e6445524333343735204572726f723a204e6f7420617574686f72696040820152621e995960ea1b606082015260800190565b6020808252602b908201527f455243333437353a2063616e2774207472616e7366657220746f20746865207a60408201526a65726f206164647265737360a81b606082015260800190565b634e487b7160e01b600052603260045260246000fd5b634e487b7160e01b600052601160045260246000fd5b6000600182016136b6576136b661368e565b5060010190565b8183526000602080850194508260005b858110156136fd5781358752828201358388015260408083013590880152606096870196909101906001016136cd565b509495945050505050565b60208152600061371c6020830184866136bd565b949350505050565b60208082526021908201527f4465626f6e64455243333437353a20636c617373204964206e6f7420666f756e6040820152601960fa1b606082015260800190565b60008235607e1983360301811261377b57600080fd5b9190910192915050565b601f8211156119d557600081815260208120601f850160051c810160208610156137ac5750805b601f850160051c820191505b81811015610c81578281556001016137b8565b600081356137d881612cd7565b92915050565b600081356137d88161306e565b8135601e198336030181126137ff57600080fd5b820180356001600160401b0381111561381757600080fd5b6020813603818401131561382a57600080fd5b61383e8261383886546135b0565b86613785565b6000601f831160018114613874576000841561385c57508482018301355b600019600386901b1c1916600185901b1786556138d1565b600086815260209020601f19851690835b828110156138a6578785018601358255938501936001909101908501613885565b50858210156138c55760001960f88760031b161c198585890101351681555b505060018460011b0186555b5050840135600184015550506002810161390d6138f0604085016137cb565b82546001600160a01b0319166001600160a01b0391909116178255565b6119d561391c606085016137de565b82805460ff60a01b191691151560a01b60ff60a01b16919091179055565b6000821982111561394d5761394d61368e565b500190565b6020808252602d908201527f476f7665726e616e63654f776e61626c65205265737472696374696f6e3a204e60408201526c1bdd08185d5d1a1bdc9a5cd959609a1b606082015260800190565b60208082526030908201527f4465626f6e6445524333343735204572726f723a20416464726573732067697660408201526f656e206973206164647265737328302960801b606082015260800190565b6000816139fe576139fe61368e565b506000190190565b60008060408385031215613a1957600080fd5b505080516020909101519092909150565b6001600160a01b0384168152604060208201819052600090612cce90830184866136bd565b600082821015613a6157613a6161368e565b50039056fea2646970667358221220e5a7dc552310e2822499c495077f7542783640801211a35c500a871aa580725264736f6c634300080d0033",
  "immutableReferences": {},
  "source": "// SPDX-License-Identifier: apache 2.0\r\n/*\r\n    Copyright 2022 Debond Protocol <info@debond.org>\r\n    Licensed under the Apache License, Version 2.0 (the \"License\");\r\n    you may not use this file except in compliance with the License.\r\n    You may obtain a copy of the License at\r\n    http://www.apache.org/licenses/LICENSE-2.0\r\n    Unless required by applicable law or agreed to in writing, software\r\n    distributed under the License is distributed on an \"AS IS\" BASIS,\r\n    WITHOUT WARRANTIES OR CONDITIONS OF ANY KIND, either express or implied.\r\n    See the License for the specific language governing permissions and\r\n    limitations under the License.\r\n*/\r\n\r\npragma solidity ^0.8.0;\r\n\r\n\r\nimport \"./interfaces/IDebondBond.sol\";\r\nimport \"./interfaces/IProgressCalculator.sol\";\r\nimport \"./interfaces/ILiquidityRedeemable.sol\";\r\nimport \"@debond-protocol/debond-governance-contracts/utils/ExecutableOwnable.sol\";\r\n\r\n\r\ncontract DebondERC3475 is IDebondBond, ExecutableOwnable {\r\n\r\n    address bondManagerAddress;\r\n    address bankAddress;\r\n\r\n    /**\r\n    * @notice this Struct is representing the Nonce properties as an object\r\n    *         and can be retrieve by the nonceId (within a class)\r\n    */\r\n    struct Nonce {\r\n        uint256 id;\r\n        bool exists;\r\n        uint256 _activeSupply;\r\n        uint256 _burnedSupply;\r\n        uint256 _redeemedSupply;\r\n        uint256 classLiquidity;\r\n        uint256 previousNonceIdCreated;\r\n        mapping(uint256 => IERC3475.Values) values;\r\n        mapping(address => uint256) balances;\r\n        mapping(address => mapping(address => uint256)) allowances;\r\n    }\r\n\r\n    /**\r\n    * @notice this Struct is representing the Class properties as an object\r\n    *         and can be retrieve by the classId\r\n    */\r\n    struct Class {\r\n        uint256 id;\r\n        bool exists;\r\n        mapping(uint256 => IERC3475.Values) values;\r\n        mapping(uint256 => IERC3475.Metadata) nonceMetadatas;\r\n        mapping(uint256 => Nonce) nonces; // from nonceId given\r\n        uint256 lastNonceIdCreated;\r\n        uint256 lastNonceIdCreatedTimestamp;\r\n    }\r\n\r\n    mapping(uint256 => Class) internal classes; // from classId given\r\n    mapping(uint256 => IERC3475.Metadata) classMetadatas;\r\n    mapping(address => mapping(address => bool)) operatorApprovals;\r\n\r\n\r\n\r\n    constructor(address _executableAddress) ExecutableOwnable(_executableAddress) {}\r\n\r\n    modifier onlyBondManager() {\r\n        require(msg.sender == bondManagerAddress, \"DebondERC3475 Error: Not authorized\");\r\n        _;\r\n    }\r\n\r\n    /**\r\n    * @notice change the Bank Address\r\n    * @param _bondManagerAddress the new bondManagerAddress to set\r\n    */\r\n    function updateBondManagerAddress(address _bondManagerAddress) onlyExecutable external {\r\n        require(_bondManagerAddress != address(0), \"DebondERC3475 Error: Address given is address(0)\");\r\n        bondManagerAddress = _bondManagerAddress;\r\n    }\r\n\r\n    /**\r\n    * @notice change the Bank Address\r\n    * @param _bankAddress the new bankAddress to set\r\n    */\r\n    function updateBankAddress(address _bankAddress) onlyExecutable external {\r\n        require(_bankAddress != address(0), \"DebondERC3475 Error: Address given is address(0)\");\r\n        bankAddress = _bankAddress;\r\n    }\r\n\r\n\r\n    // WRITE\r\n\r\n    /**\r\n    * @notice create a new metadata for classes on the actual bond contract\r\n    * @param metadataId the identifier of the metadata being created\r\n    * @param metadata the metadata to create\r\n    */\r\n    function createClassMetadata(uint metadataId, IERC3475.Metadata memory metadata) external onlyBondManager {\r\n        classMetadatas[metadataId] = metadata;\r\n    }\r\n\r\n    /**\r\n    * @notice create a new metadata for classes on the actual bond contract\r\n    * @param metadataIds the identifiers of the metadatas being created\r\n    * @param metadatas the metadatas to create\r\n    */\r\n    function createClassMetadataBatch(uint[] memory metadataIds, IERC3475.Metadata[] memory metadatas) external onlyBondManager {\r\n        require(metadataIds.length == metadatas.length, \"DebondERC3475: Incorrect inputs\");\r\n        for (uint i; i < metadataIds.length; i++) {\r\n            classMetadatas[metadataIds[i]] = metadatas[i];\r\n        }\r\n    }\r\n\r\n\r\n    /**\r\n    * @notice create a new metadata for nonces for a given class\r\n    * @dev if the classId given doesn't exist, will revert\r\n    * @param classId the classId\r\n    * @param metadataId the identifier of the metadata being created\r\n    * @param metadata the metadata to create\r\n    */\r\n    function createNonceMetadata(uint classId, uint metadataId, IERC3475.Metadata memory metadata) external onlyBondManager {\r\n        require(classExists(classId), \"DebondERC3475: class Id not found\");\r\n        classes[classId].nonceMetadatas[metadataId] = metadata;\r\n    }\r\n\r\n    /**\r\n    * @notice create metadatas for nonces for a given class\r\n    * @dev if the classId given doesn't exist, will revert\r\n    * @param classId the classId\r\n    * @param metadataIds the identifiers of the metadatas being created\r\n    * @param metadatas the metadatas to create\r\n    */\r\n    function createNonceMetadataBatch(uint classId, uint[] memory metadataIds, IERC3475.Metadata[] memory metadatas) external onlyBondManager {\r\n        require(classExists(classId), \"DebondERC3475: class Id not found\");\r\n        require(metadataIds.length == metadatas.length, \"DebondERC3475: Incorrect inputs\");\r\n        for (uint i; i < metadataIds.length; i++) {\r\n            classes[classId].nonceMetadatas[metadataIds[i]] = metadatas[i];\r\n        }\r\n    }\r\n\r\n\r\n    /**\r\n    * @notice issuance of bonds\r\n    * @dev this method is a batch, if any error will revert and will not issue any bonds\r\n    * @param to the address to issue bonds to\r\n    * @param transactions represent the classIds, nonces and amounts that need to be issued\r\n    */\r\n    function issue(address to, Transaction[] calldata transactions) external override onlyBondManager {\r\n        require(to != address(0), \"ERC3475: can't transfer to the zero address\");\r\n        for (uint i; i < transactions.length; i++) {\r\n            uint classId = transactions[i].classId;\r\n            uint nonceId = transactions[i].nonceId;\r\n            uint amount = transactions[i].amount;\r\n            require(classes[classId].exists, \"ERC3475: only issue bond that has been created\");\r\n            require(classes[classId].nonces[nonceId].exists, \"ERC-3475: nonceId given not found!\");\r\n            _issue(to, classId, nonceId, amount);\r\n\r\n            Nonce storage nonce = classes[classId].nonces[nonceId];\r\n            nonce.classLiquidity += amount;\r\n        }\r\n        emit Issue(msg.sender, to, transactions);\r\n    }\r\n\r\n    /**\r\n    * @notice creation of a new class\r\n    * @dev metadatas and values length MUST match\r\n    * @param classId identifier of the new class we want to create\r\n    * @param metadataIds identifiers of the metadatas (keys for values)\r\n    * @param values value collection\r\n    */\r\n    function createClass(uint256 classId, uint256[] calldata metadataIds, IERC3475.Values[] calldata values) external onlyBondManager {\r\n        require(metadataIds.length == values.length, \"ERC3475: inputs error\");\r\n        require(!classExists(classId), \"ERC3475: cannot create a class that already exists\");\r\n        Class storage class = classes[classId];\r\n        class.id = classId;\r\n        class.exists = true;\r\n        for (uint256 i; i < metadataIds.length; i++) {\r\n            class.values[metadataIds[i]] = values[i];\r\n        }\r\n    }\r\n\r\n    /**\r\n    * @notice creation of a new nonce for a given class\r\n    * @dev metadatas and values length MUST match\r\n    * @param classId the classId of the class we want to create nonce on\r\n    * @param nonceId identifier of the new nonce we want to create\r\n    * @param metadataIds identifiers of the metadatas (keys for values)\r\n    * @param values value collection\r\n    */\r\n    function createNonce(uint256 classId, uint256 nonceId, uint256[] calldata metadataIds, IERC3475.Values[] calldata values) external onlyBondManager {\r\n        require(metadataIds.length == values.length, \"ERC3475: inputs error\");\r\n        require(classExists(classId), \"DebondERC3475: class Id not found\");\r\n        Class storage class = classes[classId];\r\n\r\n        Nonce storage nonce = class.nonces[nonceId];\r\n        require(!nonce.exists, \"DebondERC3475: nonceId exists!\");\r\n\r\n        nonce.id = nonceId;\r\n        nonce.exists = true;\r\n        // we mark the new created nonce liquidity with the actual class liquidity\r\n        nonce.classLiquidity = classLiquidity(classId);\r\n        for (uint256 i; i < metadataIds.length; i++) {\r\n            class.nonces[nonceId].values[metadataIds[i]] = values[i];\r\n        }\r\n        // now we set the created nonceId as the new last nonceId created\r\n        class.lastNonceIdCreated = nonceId;\r\n        class.lastNonceIdCreatedTimestamp = block.timestamp;\r\n    }\r\n\r\n    /**\r\n    * @notice transfer bonds (if u want to transfer via an approved spender with allowance, use \"transferAllowanceFrom\")\r\n    * @param from address we transferring bonds from\r\n    * @param to address we transferring bonds to\r\n    * @param transactions classIds, nonceIds and amounts of transfers\r\n    */\r\n    function transferFrom(address from, address to, Transaction[] calldata transactions) external override {\r\n        for (uint i; i < transactions.length; i++) {\r\n            uint classId = transactions[i].classId;\r\n            require(classExists(classId), \"DebondERC3475: class Id not found\");\r\n            require(msg.sender == from || isApprovedFor(from, msg.sender), \"DebondERC3475: caller is not owner nor approved\");\r\n            uint nonceId = transactions[i].nonceId;\r\n\r\n            uint amount = transactions[i].amount;\r\n\r\n            _transferFrom(from, to, classId, nonceId, amount);\r\n        }\r\n\r\n        emit Transfer(msg.sender, from, to, transactions);\r\n    }\r\n\r\n    function convert(address from, address to, Transaction[] calldata transactions_from, Transaction[] calldata transactions_to) external {\r\n        require(transactions_from.length == transactions_to.length, \"should have the same length\");\r\n        for (uint i; i < transactions_from.length; i++) {\r\n            uint classId1 = transactions_from[i].classId;\r\n            uint classId2 = transactions_to[i].classId;\r\n            uint nonceId1 = transactions_from[i].nonceId;\r\n            uint nonceId2 = transactions_to[i].nonceId;\r\n            uint amount1 = transactions_from[i].amount;\r\n            uint amount2 = transactions_to[i].amount;\r\n\r\n            _burn(from, classId1, nonceId1, amount1);\r\n            _issue(to, classId2, nonceId2, amount2);\r\n\r\n            Nonce storage nonce = classes[classId2].nonces[nonceId2];\r\n            nonce.classLiquidity += amount2;\r\n        }\r\n\r\n        // emit Convert(msg.sender, from, to, transactions_from, transactions_to);\r\n        emit Burn(msg.sender, from, transactions_from);\r\n    }\r\n\r\n\r\n    /**\r\n    * @notice transfer bonds with allowance from spender\r\n    * @param from address we transferring bonds from\r\n    * @param to address we transferring bonds to\r\n    * @param transactions classIds, nonceIds and amounts of transfers\r\n    */\r\n    function transferAllowanceFrom(address from, address to, Transaction[] calldata transactions) external override {\r\n        require(from != address(0), \"DebondERC3475: can't transfer from the zero address\");\r\n        require(to != address(0), \"DebondERC3475: can't transfer to the zero address\");\r\n        for (uint i; i < transactions.length; i++) {\r\n            require(\r\n                transactions[i].amount <= allowance(from, msg.sender, transactions[i].classId, transactions[i].nonceId),\r\n                \"DebondERC3475: caller has not enough allowance\"\r\n            );\r\n\r\n            _transferFrom(from, to, transactions[i].classId, transactions[i].nonceId, transactions[i].amount);\r\n        }\r\n\r\n        emit Transfer(msg.sender, from, to, transactions);\r\n    }\r\n\r\n    /**\r\n    * @notice redeem bonds\r\n    * @param from address to redeem bonds from\r\n    * @param _transactions IERC3475 transaction collection\r\n    */\r\n    function redeem(address from, Transaction[] calldata _transactions) external override {\r\n        // require(from == msg.sender, \"DebbondERC3475: Not Authorised\");\r\n        for (uint i; i < _transactions.length; i++) {\r\n            uint classId = _transactions[i].classId;\r\n            uint nonceId = _transactions[i].nonceId;\r\n            uint amount = _transactions[i].amount;\r\n            require(classes[classId].nonces[nonceId].exists, \"ERC3475: given Nonce doesn't exist\");\r\n            require(from != address(0), \"ERC3475: can't transfer to the zero address\");\r\n            (, uint256 progressRemaining) = getProgress(classId, nonceId);\r\n            require(progressRemaining == 0, \"Bond is not redeemable\");\r\n            _redeem(from, classId, nonceId, amount);\r\n        }\r\n        // liquidity backing the bonds transfers\r\n        ILiquidityRedeemable(bankAddress).redeemLiquidity(from, _transactions);\r\n        emit Redeem(msg.sender, from, _transactions);\r\n    }\r\n\r\n    /**\r\n    * @notice burn bonds\r\n    * @param from address to burn bonds from\r\n    * @param transactions classIds, nonceIds and amounts\r\n    */\r\n    function burn(address from, Transaction[] calldata transactions) external override onlyBondManager {\r\n        require(from != address(0), \"ERC3475: can't transfer to the zero address\");\r\n        for (uint i; i < transactions.length; i++) {\r\n            require(msg.sender == from || isApprovedFor(from, msg.sender), \"ERC3475: caller is not owner nor approved\");\r\n            _burn(from, transactions[i].classId, transactions[i].nonceId, transactions[i].amount);\r\n        }\r\n        emit Burn(msg.sender, from, transactions);\r\n    }\r\n\r\n    /**\r\n    * @param spender address to approve\r\n    * @param transactions classIds, nonceIds and amounts\r\n    */\r\n    function approve(address spender, Transaction[] calldata transactions) external override {\r\n        for (uint i; i < transactions.length; i++) {\r\n            classes[transactions[i].classId].nonces[transactions[i].nonceId].allowances[msg.sender][spender] = transactions[i].amount;\r\n        }\r\n    }\r\n\r\n    /**\r\n    * @param operator address to set approval for\r\n    * @param approved true => approved, false => unapproved\r\n    */\r\n    function setApprovalFor(address operator, bool approved) external override {\r\n        operatorApprovals[msg.sender][operator] = approved;\r\n        emit ApprovalFor(msg.sender, operator, approved);\r\n    }\r\n\r\n    function _transferFrom(address from, address to, uint256 classId, uint256 nonceId, uint256 amount) internal {\r\n        require(from != address(0), \"ERC3475: can't transfer from the zero address\");\r\n        require(to != address(0), \"ERC3475: can't transfer to the zero address\");\r\n        require(classes[classId].nonces[nonceId].balances[from] >= amount, \"ERC3475: not enough bond to transfer\");\r\n        _transfer(from, to, classId, nonceId, amount);\r\n    }\r\n\r\n    function _transfer(address from, address to, uint256 classId, uint256 nonceId, uint256 amount) internal {\r\n        require(from != to, \"ERC3475: can't transfer to the same address\");\r\n        classes[classId].nonces[nonceId].balances[from] -= amount;\r\n        classes[classId].nonces[nonceId].balances[to] += amount;\r\n    }\r\n\r\n    function _issue(address to, uint256 classId, uint256 nonceId, uint256 amount) internal {\r\n        require(amount > 0, \"DebondERC3475: amount must be greater than 0\");\r\n        classes[classId].nonces[nonceId].balances[to] += amount;\r\n        classes[classId].nonces[nonceId]._activeSupply += amount;\r\n    }\r\n\r\n    function _redeem(address from, uint256 classId, uint256 nonceId, uint256 amount) internal {\r\n        require(classes[classId].nonces[nonceId].balances[from] >= amount);\r\n        classes[classId].nonces[nonceId].balances[from] -= amount;\r\n        classes[classId].nonces[nonceId]._activeSupply -= amount;\r\n        classes[classId].nonces[nonceId]._redeemedSupply += amount;\r\n    }\r\n\r\n    function _burn(address from, uint256 classId, uint256 nonceId, uint256 amount) internal {\r\n        require(classes[classId].nonces[nonceId].balances[from] >= amount);\r\n        classes[classId].nonces[nonceId].balances[from] -= amount;\r\n        classes[classId].nonces[nonceId]._activeSupply -= amount;\r\n        classes[classId].nonces[nonceId]._burnedSupply += amount;\r\n    }\r\n\r\n    // READS\r\n\r\n    function getProgress(uint256 classId, uint256 nonceId) public view returns (uint256 progressAchieved, uint256 progressRemaining) {\r\n        return IProgressCalculator(bondManagerAddress).getProgress(classId, nonceId);\r\n    }\r\n\r\n    function getLastNonceCreated(uint classId) external view returns (uint nonceId, uint createdAt) {\r\n        Class storage class = classes[classId];\r\n        require(class.exists, \"Debond Data: class id given not found\");\r\n        nonceId = class.lastNonceIdCreated;\r\n        createdAt = class.lastNonceIdCreatedTimestamp;\r\n        return (nonceId, createdAt);\r\n    }\r\n\r\n    function classExists(uint256 classId) public view returns (bool) {\r\n        return classes[classId].exists;\r\n    }\r\n\r\n    function nonceExists(uint256 classId, uint256 nonceId) public view returns (bool) {\r\n        return classes[classId].nonces[nonceId].exists;\r\n    }\r\n\r\n    function classLiquidity(uint256 classId) public view returns (uint256) {\r\n        return classes[classId].nonces[classes[classId].lastNonceIdCreated].classLiquidity;\r\n    }\r\n\r\n    function classLiquidityBatch(uint256[] calldata classIds) external view returns (uint256[] memory) {\r\n        uint256[] memory liquidities = new uint[](classIds.length);\r\n        for(uint i; i < classIds.length; i++) {\r\n            liquidities[i] = classLiquidity(classIds[i]);\r\n        }\r\n        return liquidities;\r\n    }\r\n\r\n    function classLiquidityAtNonce(uint256 classId, uint256 nonceId, uint256 searchNonceLimit) external view returns (uint256) {\r\n        // if class has no liquidity it means no liquidity on any nonce\r\n        if(classLiquidity(classId) == 0) {\r\n            return 0;\r\n        }\r\n        // we check if the nonceId given is greater than the last nonce Issued\r\n        uint lastNonce = classes[classId].lastNonceIdCreated;\r\n        if(nonceId > lastNonce) {\r\n            return classes[classId].nonces[lastNonce].classLiquidity;\r\n        }\r\n\r\n        if(!nonceExists(classId, nonceId)) {\r\n            while(!nonceExists(classId, nonceId) && nonceId > searchNonceLimit) {\r\n                --nonceId;\r\n            }\r\n        }\r\n        return classes[classId].nonces[nonceId].classLiquidity;\r\n    }\r\n\r\n    function totalSupply(uint256 classId, uint256 nonceId) public override view returns (uint256) {\r\n        return\r\n        classes[classId].nonces[nonceId]._activeSupply +\r\n        classes[classId].nonces[nonceId]._redeemedSupply +\r\n        classes[classId].nonces[nonceId]._burnedSupply;\r\n\r\n    }\r\n\r\n    function activeSupply(uint256 classId, uint256 nonceId) public override view returns (uint256) {\r\n        return classes[classId].nonces[nonceId]._activeSupply;\r\n    }\r\n\r\n    function burnedSupply(uint256 classId, uint256 nonceId) public override view returns (uint256) {\r\n        return classes[classId].nonces[nonceId]._burnedSupply;\r\n    }\r\n\r\n    function redeemedSupply(uint256 classId, uint256 nonceId) public override view returns (uint256) {\r\n        return classes[classId].nonces[nonceId]._redeemedSupply;\r\n    }\r\n\r\n    function balanceOf(address account, uint256 classId, uint256 nonceId) public override view returns (uint256) {\r\n        require(account != address(0), \"ERC3475: balance query for the zero address\");\r\n\r\n        return classes[classId].nonces[nonceId].balances[account];\r\n    }\r\n\r\n    function classValues(uint256 classId, uint256 metadataId) public view override returns (IERC3475.Values memory) {\r\n        return classes[classId].values[metadataId];\r\n    }\r\n\r\n    function nonceValues(uint256 classId, uint256 nonceId, uint256 metadataId) public view override returns (IERC3475.Values memory) {\r\n        return classes[classId].nonces[nonceId].values[metadataId];\r\n    }\r\n\r\n    function classMetadata(uint256 metadataId) external view returns (Metadata memory) {\r\n        return classMetadatas[metadataId];\r\n    }\r\n\r\n    function nonceMetadata(uint256 classId, uint256 metadataId) external view returns (Metadata memory) {\r\n        return classes[classId].nonceMetadatas[metadataId];\r\n    }\r\n\r\n    function allowance(address owner, address spender, uint256 classId, uint256 nonceId) public view returns (uint256) {\r\n        return classes[classId].nonces[nonceId].allowances[owner][spender];\r\n    }\r\n\r\n    function isApprovedFor(address owner, address operator) public view override returns (bool) {\r\n        return operatorApprovals[owner][operator];\r\n    }\r\n}\r\n",
  "sourcePath": "C:\\Users\\temp\\Documents\\Debond-ERC3475\\contracts\\DebondERC3475.sol",
  "compiler": {
    "name": "solc",
    "version": "0.8.13+commit.abaa5c0e.Emscripten.clang"
  },
  "schemaVersion": "3.4.11",
  "updatedAt": "2022-12-06T01:05:52.730Z",
  "devdoc": {
    "kind": "dev",
    "methods": {
      "activeSupply(uint256,uint256)": {
        "details": "Returns the active supply of the bond in question."
      },
      "approve(address,(uint256,uint256,uint256)[])": {
        "params": {
          "spender": "address to approve",
          "transactions": "classIds, nonceIds and amounts"
        }
      },
      "burn(address,(uint256,uint256,uint256)[])": {
        "params": {
          "from": "address to burn bonds from",
          "transactions": "classIds, nonceIds and amounts"
        }
      },
      "burnedSupply(uint256,uint256)": {
        "details": "Returns the burned supply of the bond in question."
      },
      "classMetadata(uint256)": {
        "details": "Returns the JSON metadata of the classes. The metadata SHOULD follow a set of structure explained later in eip-3475.md"
      },
      "classValues(uint256,uint256)": {
        "details": "Returns the values of given classId. the metadata SHOULD follow a set of structure explained in eip-3475.md"
      },
      "createClass(uint256,uint256[],(string,uint256,address,bool)[])": {
        "details": "metadatas and values length MUST match",
        "params": {
          "classId": "identifier of the new class we want to create",
          "metadataIds": "identifiers of the metadatas (keys for values)",
          "values": "value collection"
        }
      },
      "createClassMetadata(uint256,(string,string,string))": {
        "params": {
          "metadata": "the metadata to create",
          "metadataId": "the identifier of the metadata being created"
        }
      },
      "createClassMetadataBatch(uint256[],(string,string,string)[])": {
        "params": {
          "metadataIds": "the identifiers of the metadatas being created",
          "metadatas": "the metadatas to create"
        }
      },
      "createNonce(uint256,uint256,uint256[],(string,uint256,address,bool)[])": {
        "details": "metadatas and values length MUST match",
        "params": {
          "classId": "the classId of the class we want to create nonce on",
          "metadataIds": "identifiers of the metadatas (keys for values)",
          "nonceId": "identifier of the new nonce we want to create",
          "values": "value collection"
        }
      },
      "createNonceMetadata(uint256,uint256,(string,string,string))": {
        "details": "if the classId given doesn't exist, will revert",
        "params": {
          "classId": "the classId",
          "metadata": "the metadata to create",
          "metadataId": "the identifier of the metadata being created"
        }
      },
      "createNonceMetadataBatch(uint256,uint256[],(string,string,string)[])": {
        "details": "if the classId given doesn't exist, will revert",
        "params": {
          "classId": "the classId",
          "metadataIds": "the identifiers of the metadatas being created",
          "metadatas": "the metadatas to create"
        }
      },
      "getProgress(uint256,uint256)": {
        "details": "Returns the informations about the progress needed to redeem the bond"
      },
      "issue(address,(uint256,uint256,uint256)[])": {
        "details": "this method is a batch, if any error will revert and will not issue any bonds",
        "params": {
          "to": "the address to issue bonds to",
          "transactions": "represent the classIds, nonces and amounts that need to be issued"
        }
      },
      "nonceMetadata(uint256,uint256)": {
        "details": "Returns the JSON metadata of the nonces. The metadata SHOULD follow a set of structure explained later in eip-3475.md"
      },
      "nonceValues(uint256,uint256,uint256)": {
        "details": "Returns the values of given nonceId. The metadata SHOULD follow a set of structure explained in eip-3475.md"
      },
      "redeem(address,(uint256,uint256,uint256)[])": {
        "params": {
          "_transactions": "IERC3475 transaction collection",
          "from": "address to redeem bonds from"
        }
      },
      "redeemedSupply(uint256,uint256)": {
        "details": "Returns the redeemed supply of the bond in question."
      },
      "setApprovalFor(address,bool)": {
        "params": {
          "approved": "true => approved, false => unapproved",
          "operator": "address to set approval for"
        }
      },
      "totalSupply(uint256,uint256)": {
        "details": "Returns the total supply of the bond in question."
      },
      "transferAllowanceFrom(address,address,(uint256,uint256,uint256)[])": {
        "params": {
          "from": "address we transferring bonds from",
          "to": "address we transferring bonds to",
          "transactions": "classIds, nonceIds and amounts of transfers"
        }
      },
      "transferFrom(address,address,(uint256,uint256,uint256)[])": {
        "params": {
          "from": "address we transferring bonds from",
          "to": "address we transferring bonds to",
          "transactions": "classIds, nonceIds and amounts of transfers"
        }
      },
      "updateBankAddress(address)": {
        "params": {
          "_bankAddress": "the new bankAddress to set"
        }
      },
      "updateBondManagerAddress(address)": {
        "params": {
          "_bondManagerAddress": "the new bondManagerAddress to set"
        }
      }
    },
    "version": 1
  },
  "userdoc": {
    "events": {
      "Burn(address,address,(uint256,uint256,uint256)[])": {
        "notice": "MUST trigger when tokens are burned"
      },
      "Issue(address,address,(uint256,uint256,uint256)[])": {
        "notice": "MUST trigger when tokens are issued"
      },
      "Redeem(address,address,(uint256,uint256,uint256)[])": {
        "notice": "MUST trigger when tokens are redeemed"
      },
      "Transfer(address,address,address,(uint256,uint256,uint256)[])": {
        "notice": "MUST trigger when tokens are transferred, including zero value transfers."
      }
    },
    "kind": "user",
    "methods": {
      "burn(address,(uint256,uint256,uint256)[])": {
        "notice": "burn bonds"
      },
      "createClass(uint256,uint256[],(string,uint256,address,bool)[])": {
        "notice": "creation of a new class"
      },
      "createClassMetadata(uint256,(string,string,string))": {
        "notice": "create a new metadata for classes on the actual bond contract"
      },
      "createClassMetadataBatch(uint256[],(string,string,string)[])": {
        "notice": "create a new metadata for classes on the actual bond contract"
      },
      "createNonce(uint256,uint256,uint256[],(string,uint256,address,bool)[])": {
        "notice": "creation of a new nonce for a given class"
      },
      "createNonceMetadata(uint256,uint256,(string,string,string))": {
        "notice": "create a new metadata for nonces for a given class"
      },
      "createNonceMetadataBatch(uint256,uint256[],(string,string,string)[])": {
        "notice": "create metadatas for nonces for a given class"
      },
      "getProgress(uint256,uint256)": {
        "notice": "Every bond contract can have their own logic concerning the progress definition."
      },
      "issue(address,(uint256,uint256,uint256)[])": {
        "notice": "issuance of bonds"
      },
      "redeem(address,(uint256,uint256,uint256)[])": {
        "notice": "redeem bonds"
      },
      "transferAllowanceFrom(address,address,(uint256,uint256,uint256)[])": {
        "notice": "transfer bonds with allowance from spender"
      },
      "transferFrom(address,address,(uint256,uint256,uint256)[])": {
        "notice": "transfer bonds (if u want to transfer via an approved spender with allowance, use \"transferAllowanceFrom\")"
      },
      "updateBankAddress(address)": {
        "notice": "change the Bank Address"
      },
      "updateBondManagerAddress(address)": {
        "notice": "change the Bank Address"
      }
    },
    "version": 1
  }
}