{
  "contractName": "LiquidityRedeemable",
  "abi": [
    {
      "inputs": [
        {
          "internalType": "address",
          "name": "_debondBondAddress",
          "type": "address"
        }
      ],
      "stateMutability": "nonpayable",
      "type": "constructor"
    },
    {
      "inputs": [
        {
          "internalType": "address",
          "name": "_to",
          "type": "address"
        },
        {
          "components": [
            {
              "internalType": "uint256",
              "name": "classId",
              "type": "uint256"
            },
            {
              "internalType": "uint256",
              "name": "nonceId",
              "type": "uint256"
            },
            {
              "internalType": "uint256",
              "name": "amount",
              "type": "uint256"
            }
          ],
          "internalType": "struct IERC3475.Transaction[]",
          "name": "_transactions",
          "type": "tuple[]"
        }
      ],
      "name": "redeemLiquidity",
      "outputs": [],
      "stateMutability": "nonpayable",
      "type": "function"
    }
  ],
  "bytecode": "0x608060405234801561001057600080fd5b5060405161021738038061021783398101604081905261002f91610054565b600080546001600160a01b0319166001600160a01b0392909216919091179055610084565b60006020828403121561006657600080fd5b81516001600160a01b038116811461007d57600080fd5b9392505050565b610184806100936000396000f3fe608060405234801561001057600080fd5b506004361061002b5760003560e01c8063d574686814610030575b600080fd5b61004361003e3660046100ba565b610045565b005b6000546001600160a01b031633146100b55760405162461bcd60e51b815260206004820152602960248201527f4c697175696469747952656465656d61626c65204572726f723a204e6f7420416044820152681d5d1a1bdc9a5cd95960ba1b606482015260840160405180910390fd5b505050565b6000806000604084860312156100cf57600080fd5b83356001600160a01b03811681146100e657600080fd5b9250602084013567ffffffffffffffff8082111561010357600080fd5b818601915086601f83011261011757600080fd5b81358181111561012657600080fd5b87602060608302850101111561013b57600080fd5b602083019450809350505050925092509256fea2646970667358221220ad4f52aaa61178d9a073260184dca2df7aa9b8f46930ece4f4a99d5485a5a04d64736f6c634300080d0033",
  "immutableReferences": {},
  "source": "pragma solidity ^0.8.0;\r\n\r\n// SPDX-License-Identifier: MIT\r\n\r\n\r\nimport \"../interfaces/ILiquidityRedeemable.sol\";\r\nimport \"erc3475/IERC3475.sol\";\r\n\r\n\r\ncontract LiquidityRedeemable is ILiquidityRedeemable {\r\n\r\n    address debondBondAddress;\r\n\r\n    constructor(address _debondBondAddress) {\r\n        debondBondAddress = _debondBondAddress;\r\n    }\r\n\r\n    modifier onlyDebondBond() {\r\n        require(msg.sender == debondBondAddress, \"LiquidityRedeemable Error: Not Authorised\");\r\n        _;\r\n    }\r\n\r\n    function redeemLiquidity(address _to, IERC3475.Transaction[] calldata _transactions) external onlyDebondBond {\r\n        return;\r\n    }\r\n}\r\n",
  "sourcePath": "C:\\Users\\temp\\Documents\\Debond-ERC3475\\contracts\\test\\LiquidityRedeemable.sol",
  "compiler": {
    "name": "solc",
    "version": "0.8.13+commit.abaa5c0e.Emscripten.clang"
  },
  "schemaVersion": "3.4.11",
  "updatedAt": "2022-12-06T01:05:52.760Z",
  "devdoc": {
    "kind": "dev",
    "methods": {},
    "version": 1
  },
  "userdoc": {
    "kind": "user",
    "methods": {},
    "version": 1
  }
}