{
  "contractName": "ProgressCalculator",
  "abi": [
    {
      "inputs": [
        {
          "internalType": "address",
          "name": "_bondContract",
          "type": "address"
        }
      ],
      "stateMutability": "nonpayable",
      "type": "constructor"
    },
    {
      "inputs": [
        {
          "internalType": "uint256",
          "name": "classId",
          "type": "uint256"
        },
        {
          "internalType": "uint256",
          "name": "nonceId",
          "type": "uint256"
        }
      ],
      "name": "getProgress",
      "outputs": [
        {
          "internalType": "uint256",
          "name": "progressAchieved",
          "type": "uint256"
        },
        {
          "internalType": "uint256",
          "name": "progressRemaining",
          "type": "uint256"
        }
      ],
      "stateMutability": "pure",
      "type": "function"
    }
  ],
  "bytecode": "0x608060405234801561001057600080fd5b5060405161014438038061014483398101604081905261002f91610054565b600080546001600160a01b0319166001600160a01b0392909216919091179055610084565b60006020828403121561006657600080fd5b81516001600160a01b038116811461007d57600080fd5b9392505050565b60b2806100926000396000f3fe6080604052348015600f57600080fd5b506004361060285760003560e01c8063572e5ef214602d575b600080fd5b60426038366004605b565b5060649160009150565b6040805192835260208301919091520160405180910390f35b60008060408385031215606d57600080fd5b5050803592602090910135915056fea264697066735822122044395838864d7486b1783c38cbe6d5951b641fd76b0c2813fea0412f54cee81a64736f6c634300080d0033",
  "immutableReferences": {},
  "source": "pragma solidity ^0.8.0;\r\n\r\n// SPDX-License-Identifier: MIT\r\n\r\n\r\nimport \"../interfaces/IProgressCalculator.sol\";\r\nimport \"erc3475/IERC3475.sol\";\r\nimport \"../DebondERC3475.sol\";\r\n\r\n\r\ncontract ProgressCalculator is IProgressCalculator {\r\n\r\n    address bondContract;\r\n\r\n    constructor(address _bondContract) {\r\n        bondContract = _bondContract;\r\n    }\r\n\r\n    function getProgress(uint256 classId, uint256 nonceId) external pure returns (uint256 progressAchieved, uint256 progressRemaining) {\r\n        progressAchieved = 100;\r\n        progressRemaining = 0;\r\n    }\r\n}\r\n",
  "sourcePath": "C:\\Users\\temp\\Documents\\Debond-ERC3475\\contracts\\test\\ProgressCalculator.sol",
  "compiler": {
    "name": "solc",
    "version": "0.8.13+commit.abaa5c0e.Emscripten.clang"
  },
  "schemaVersion": "3.4.11",
  "updatedAt": "2022-12-06T01:05:52.762Z",
  "devdoc": {
    "kind": "dev",
    "methods": {},
    "version": 1
  },
  "userdoc": {
    "kind": "user",
    "methods": {},
    "version": 1
  }
}